{
  "address": "0xDc64a140Aa3E981100a9becA4E685f962f0cF6C9",
  "abi": [
    {
      "inputs": [],
      "stateMutability": "payable",
      "type": "constructor"
    },
    {
      "anonymous": false,
      "inputs": [
        {
          "indexed": true,
          "internalType": "address",
          "name": "previousOwner",
          "type": "address"
        },
        {
          "indexed": true,
          "internalType": "address",
          "name": "newOwner",
          "type": "address"
        }
      ],
      "name": "OwnershipTransferred",
      "type": "event"
    },
    {
      "stateMutability": "payable",
      "type": "fallback"
    },
    {
      "inputs": [
        {
          "internalType": "string",
          "name": "_ticker",
          "type": "string"
        },
        {
          "internalType": "uint256",
          "name": "_lastPrice",
          "type": "uint256"
        }
      ],
      "name": "addInvestment",
      "outputs": [],
      "stateMutability": "nonpayable",
      "type": "function"
    },
    {
      "inputs": [
        {
          "internalType": "uint256",
          "name": "_amount",
          "type": "uint256"
        }
      ],
      "name": "buyInvestment",
      "outputs": [],
      "stateMutability": "nonpayable",
      "type": "function"
    },
    {
      "inputs": [],
      "name": "contractBalance",
      "outputs": [
        {
          "internalType": "uint256",
          "name": "",
          "type": "uint256"
        }
      ],
      "stateMutability": "view",
      "type": "function"
    },
    {
      "inputs": [],
      "name": "owner",
      "outputs": [
        {
          "internalType": "address",
          "name": "",
          "type": "address"
        }
      ],
      "stateMutability": "view",
      "type": "function"
    },
    {
      "inputs": [
        {
          "internalType": "address",
          "name": "",
          "type": "address"
        }
      ],
      "name": "playUSDBalance",
      "outputs": [
        {
          "internalType": "uint256",
          "name": "",
          "type": "uint256"
        }
      ],
      "stateMutability": "view",
      "type": "function"
    },
    {
      "inputs": [
        {
          "internalType": "address",
          "name": "",
          "type": "address"
        }
      ],
      "name": "receivedStartUp",
      "outputs": [
        {
          "internalType": "bool",
          "name": "",
          "type": "bool"
        }
      ],
      "stateMutability": "view",
      "type": "function"
    },
    {
      "inputs": [],
      "name": "renounceOwnership",
      "outputs": [],
      "stateMutability": "nonpayable",
      "type": "function"
    },
    {
      "inputs": [
        {
          "internalType": "address",
          "name": "newOwner",
          "type": "address"
        }
      ],
      "name": "transferOwnership",
      "outputs": [],
      "stateMutability": "nonpayable",
      "type": "function"
    },
    {
      "stateMutability": "payable",
      "type": "receive"
    }
  ],
  "transactionHash": "0xabcdf1c285e02503e0f210a96bb7c4a46f6b546d6ac2998fda6e5165e382e9c5",
  "args": [],
  "solcInputHash": "a287611a6b22eab018d4fc792e60603a",
  "bytecode": "0x608060405261000d33610012565b610062565b600080546001600160a01b038381166001600160a01b0319831681178455604051919092169283917f8be0079c531659141344cd1fd0a4f28419497f9722a3daafe3b4186f6b6457e09190a35050565b610554806100716000396000f3fe6080604052600436106100795760003560e01c80638da5cb5b1161004b5780638da5cb5b14610117578063ba7010a51461013f578063d467b7aa1461016c578063f2fde38b1461018c57005b806339f810c01461008257806357a1c389146100c7578063715018a6146100e55780638b7afe2e146100fa57005b3661008057005b005b34801561008e57600080fd5b506100b261009d36600461042a565b60016020526000908152604090205460ff1681565b60405190151581526020015b60405180910390f35b3480156100d357600080fd5b506100806100e23660046104cb565b50565b3480156100f157600080fd5b506100806101ac565b34801561010657600080fd5b50475b6040519081526020016100be565b34801561012357600080fd5b506000546040516001600160a01b0390911681526020016100be565b34801561014b57600080fd5b5061010961015a36600461042a565b60026020526000908152604090205481565b34801561017857600080fd5b50610080610187366004610458565b6101c0565b34801561019857600080fd5b506100806101a736600461042a565b61026c565b6101b46102e7565b6101be6000610341565b565b6101c86102e7565b6040805160806020601f860181900402820181019092526060810184815260039282919087908790819085018382808284376000920182905250938552505050602080830182905260409092018590528354600181018555938152819020825180519394600302909101926102409284920190610391565b50602082015160018201805460ff191660ff909216919091179055604090910151600290910155505050565b6102746102e7565b6001600160a01b0381166102de5760405162461bcd60e51b815260206004820152602660248201527f4f776e61626c653a206e6577206f776e657220697320746865207a65726f206160448201526564647265737360d01b60648201526084015b60405180910390fd5b6100e281610341565b6000546001600160a01b031633146101be5760405162461bcd60e51b815260206004820181905260248201527f4f776e61626c653a2063616c6c6572206973206e6f7420746865206f776e657260448201526064016102d5565b600080546001600160a01b038381166001600160a01b0319831681178455604051919092169283917f8be0079c531659141344cd1fd0a4f28419497f9722a3daafe3b4186f6b6457e09190a35050565b82805461039d906104e3565b90600052602060002090601f0160209004810192826103bf5760008555610405565b82601f106103d857805160ff1916838001178555610405565b82800160010185558215610405579182015b828111156104055782518255916020019190600101906103ea565b50610411929150610415565b5090565b5b808211156104115760008155600101610416565b60006020828403121561043b578081fd5b81356001600160a01b0381168114610451578182fd5b9392505050565b60008060006040848603121561046c578182fd5b833567ffffffffffffffff80821115610483578384fd5b818601915086601f830112610496578384fd5b8135818111156104a4578485fd5b8760208285010111156104b5578485fd5b6020928301989097509590910135949350505050565b6000602082840312156104dc578081fd5b5035919050565b600181811c908216806104f757607f821691505b6020821081141561051857634e487b7160e01b600052602260045260246000fd5b5091905056fea2646970667358221220271f2ebffe7bc7d55d9d59bb75c9e3ec2153a86db94706fd2b9f2282822c99ec64736f6c63430008040033",
  "devdoc": {
    "kind": "dev",
    "methods": {
      "owner()": {
        "details": "Returns the address of the current owner."
      },
      "renounceOwnership()": {
        "details": "Leaves the contract without owner. It will not be possible to call `onlyOwner` functions anymore. Can only be called by the current owner. NOTE: Renouncing ownership will leave the contract without an owner, thereby removing any functionality that is only available to the owner."
      },
      "transferOwnership(address)": {
        "details": "Transfers ownership of the contract to a new account (`newOwner`). Can only be called by the current owner."
      }
    },
    "version": 1
  },
  "userdoc": {
    "kind": "user",
    "methods": {},
    "version": 1
  },
  "storageLayout": {
    "storage": [
      {
        "astId": 7,
        "contract": "contracts/YourContract.sol:YourContract",
        "label": "_owner",
        "offset": 0,
        "slot": "0",
        "type": "t_address"
      },
      {
        "astId": 1736,
        "contract": "contracts/YourContract.sol:YourContract",
        "label": "receivedStartUp",
        "offset": 0,
        "slot": "1",
        "type": "t_mapping(t_address,t_bool)"
      },
      {
        "astId": 1740,
        "contract": "contracts/YourContract.sol:YourContract",
        "label": "playUSDBalance",
        "offset": 0,
        "slot": "2",
        "type": "t_mapping(t_address,t_uint256)"
      },
      {
        "astId": 1744,
        "contract": "contracts/YourContract.sol:YourContract",
        "label": "investments",
        "offset": 0,
        "slot": "3",
        "type": "t_array(t_struct(Investment)1732_storage)dyn_storage"
      }
    ],
    "types": {
      "t_address": {
        "encoding": "inplace",
        "label": "address",
        "numberOfBytes": "20"
      },
      "t_array(t_struct(Investment)1732_storage)dyn_storage": {
        "base": "t_struct(Investment)1732_storage",
        "encoding": "dynamic_array",
        "label": "struct YourContract.Investment[]",
        "numberOfBytes": "32"
      },
      "t_bool": {
        "encoding": "inplace",
        "label": "bool",
        "numberOfBytes": "1"
      },
      "t_mapping(t_address,t_bool)": {
        "encoding": "mapping",
        "key": "t_address",
        "label": "mapping(address => bool)",
        "numberOfBytes": "32",
        "value": "t_bool"
      },
      "t_mapping(t_address,t_uint256)": {
        "encoding": "mapping",
        "key": "t_address",
        "label": "mapping(address => uint256)",
        "numberOfBytes": "32",
        "value": "t_uint256"
      },
      "t_string_storage": {
        "encoding": "bytes",
        "label": "string",
        "numberOfBytes": "32"
      },
      "t_struct(Investment)1732_storage": {
        "encoding": "inplace",
        "label": "struct YourContract.Investment",
        "members": [
          {
            "astId": 1727,
            "contract": "contracts/YourContract.sol:YourContract",
            "label": "ticker",
            "offset": 0,
            "slot": "0",
            "type": "t_string_storage"
          },
          {
            "astId": 1729,
            "contract": "contracts/YourContract.sol:YourContract",
            "label": "holders",
            "offset": 0,
            "slot": "1",
            "type": "t_uint8"
          },
          {
            "astId": 1731,
            "contract": "contracts/YourContract.sol:YourContract",
            "label": "lastPrice",
            "offset": 0,
            "slot": "2",
            "type": "t_uint256"
          }
        ],
        "numberOfBytes": "96"
      },
      "t_uint256": {
        "encoding": "inplace",
        "label": "uint256",
        "numberOfBytes": "32"
      },
      "t_uint8": {
        "encoding": "inplace",
        "label": "uint8",
        "numberOfBytes": "1"
      }
    }
  }
}